{
  "contractName": "Marketplace",
  "abi": [
    {
      "inputs": [],
      "payable": false,
      "stateMutability": "nonpayable",
      "type": "constructor"
    },
    {
      "anonymous": false,
      "inputs": [
        {
          "indexed": false,
          "internalType": "uint256",
          "name": "Id",
          "type": "uint256"
        },
        {
          "indexed": false,
          "internalType": "string",
          "name": "Nombre",
          "type": "string"
        },
        {
          "indexed": false,
          "internalType": "string",
          "name": "Modelo",
          "type": "string"
        },
        {
          "indexed": false,
          "internalType": "uint256",
          "name": "Cantidad",
          "type": "uint256"
        },
        {
          "indexed": false,
          "internalType": "uint256",
          "name": "price",
          "type": "uint256"
        },
        {
          "indexed": false,
          "internalType": "address payable",
          "name": "Owner",
          "type": "address"
        },
        {
          "indexed": false,
          "internalType": "bool",
          "name": "comprado",
          "type": "bool"
        }
      ],
      "name": "ProductCreado",
      "type": "event"
    },
    {
      "anonymous": false,
      "inputs": [
        {
          "indexed": false,
          "internalType": "uint256",
          "name": "Id",
          "type": "uint256"
        },
        {
          "indexed": false,
          "internalType": "string",
          "name": "Nombre",
          "type": "string"
        },
        {
          "indexed": false,
          "internalType": "string",
          "name": "Modelo",
          "type": "string"
        },
        {
          "indexed": false,
          "internalType": "uint256",
          "name": "Cantidad",
          "type": "uint256"
        },
        {
          "indexed": false,
          "internalType": "uint256",
          "name": "price",
          "type": "uint256"
        },
        {
          "indexed": false,
          "internalType": "address payable",
          "name": "Owner",
          "type": "address"
        },
        {
          "indexed": false,
          "internalType": "bool",
          "name": "comprado",
          "type": "bool"
        }
      ],
      "name": "ProductoComprado",
      "type": "event"
    },
    {
      "constant": true,
      "inputs": [],
      "name": "Nombre",
      "outputs": [
        {
          "internalType": "string",
          "name": "",
          "type": "string"
        }
      ],
      "payable": false,
      "stateMutability": "view",
      "type": "function"
    },
    {
      "constant": true,
      "inputs": [],
      "name": "productCount",
      "outputs": [
        {
          "internalType": "uint256",
          "name": "",
          "type": "uint256"
        }
      ],
      "payable": false,
      "stateMutability": "view",
      "type": "function"
    },
    {
      "constant": true,
      "inputs": [
        {
          "internalType": "uint256",
          "name": "",
          "type": "uint256"
        }
      ],
      "name": "productos",
      "outputs": [
        {
          "internalType": "uint256",
          "name": "Id",
          "type": "uint256"
        },
        {
          "internalType": "string",
          "name": "Nombre",
          "type": "string"
        },
        {
          "internalType": "string",
          "name": "Modelo",
          "type": "string"
        },
        {
          "internalType": "uint256",
          "name": "price",
          "type": "uint256"
        },
        {
          "internalType": "uint256",
          "name": "Cantidad",
          "type": "uint256"
        },
        {
          "internalType": "address payable",
          "name": "Owner",
          "type": "address"
        },
        {
          "internalType": "bool",
          "name": "comprado",
          "type": "bool"
        }
      ],
      "payable": false,
      "stateMutability": "view",
      "type": "function"
    },
    {
      "constant": false,
      "inputs": [
        {
          "internalType": "string",
          "name": "_Nombre",
          "type": "string"
        },
        {
          "internalType": "string",
          "name": "_Modelo",
          "type": "string"
        },
        {
          "internalType": "uint256",
          "name": "_Cantidad",
          "type": "uint256"
        },
        {
          "internalType": "uint256",
          "name": "_price",
          "type": "uint256"
        }
      ],
      "name": "crearProduct",
      "outputs": [],
      "payable": false,
      "stateMutability": "nonpayable",
      "type": "function"
    },
    {
      "constant": false,
      "inputs": [
        {
          "internalType": "uint256",
          "name": "_id",
          "type": "uint256"
        }
      ],
      "name": "comprarProduct",
      "outputs": [],
      "payable": true,
      "stateMutability": "payable",
      "type": "function"
    }
  ],
  "bytecode": "0x6080604052600060015534801561001557600080fd5b506040518060400160405280600a81526020017f477075204d61726b65740000000000000000000000000000000000000000000081525060009080519060200190610061929190610067565b5061010c565b828054600181600116156101000203166002900490600052602060002090601f016020900481019282601f106100a857805160ff19168380011785556100d6565b828001600101855582156100d6579182015b828111156100d55782518255916020019190600101906100ba565b5b5090506100e391906100e7565b5090565b61010991905b808211156101055760008160009055506001016100ed565b5090565b90565b610fd08061011b6000396000f3fe60806040526004361061004a5760003560e01c80630c60d1bc1461004f57806367418eb9146100df578063995536361461010d578063e0f6ef8714610280578063f3dce9e0146102ab575b600080fd5b34801561005b57600080fd5b5061006461041e565b6040518080602001828103825283818151815260200191508051906020019080838360005b838110156100a4578082015181840152602081019050610089565b50505050905090810190601f1680156100d15780820380516001836020036101000a031916815260200191505b509250505060405180910390f35b61010b600480360360208110156100f557600080fd5b81019080803590602001909291905050506104bc565b005b34801561011957600080fd5b506101466004803603602081101561013057600080fd5b8101908080359060200190929190505050610a2c565b6040518088815260200180602001806020018781526020018681526020018573ffffffffffffffffffffffffffffffffffffffff1673ffffffffffffffffffffffffffffffffffffffff16815260200184151515158152602001838103835289818151815260200191508051906020019080838360005b838110156101d85780820151818401526020810190506101bd565b50505050905090810190601f1680156102055780820380516001836020036101000a031916815260200191505b50838103825288818151815260200191508051906020019080838360005b8381101561023e578082015181840152602081019050610223565b50505050905090810190601f16801561026b5780820380516001836020036101000a031916815260200191505b50995050505050505050505060405180910390f35b34801561028c57600080fd5b50610295610bcb565b6040518082815260200191505060405180910390f35b3480156102b757600080fd5b5061041c600480360360808110156102ce57600080fd5b81019080803590602001906401000000008111156102eb57600080fd5b8201836020820111156102fd57600080fd5b8035906020019184600183028401116401000000008311171561031f57600080fd5b91908080601f016020809104026020016040519081016040528093929190818152602001838380828437600081840152601f19601f8201169050808301925050505050505091929192908035906020019064010000000081111561038257600080fd5b82018360208201111561039457600080fd5b803590602001918460018302840111640100000000831117156103b657600080fd5b91908080601f016020809104026020016040519081016040528093929190818152602001838380828437600081840152601f19601f8201169050808301925050505050505091929192908035906020019092919080359060200190929190505050610bd1565b005b60008054600181600116156101000203166002900480601f0160208091040260200160405190810160405280929190818152602001828054600181600116156101000203166002900480156104b45780601f10610489576101008083540402835291602001916104b4565b820191906000526020600020905b81548152906001019060200180831161049757829003601f168201915b505050505081565b6104c4610ea1565b600260008381526020019081526020016000206040518060e001604052908160008201548152602001600182018054600181600116156101000203166002900480601f0160208091040260200160405190810160405280929190818152602001828054600181600116156101000203166002900480156105855780601f1061055a57610100808354040283529160200191610585565b820191906000526020600020905b81548152906001019060200180831161056857829003601f168201915b50505050508152602001600282018054600181600116156101000203166002900480601f0160208091040260200160405190810160405280929190818152602001828054600181600116156101000203166002900480156106275780601f106105fc57610100808354040283529160200191610627565b820191906000526020600020905b81548152906001019060200180831161060a57829003601f168201915b5050505050815260200160038201548152602001600482015481526020016005820160009054906101000a900473ffffffffffffffffffffffffffffffffffffffff1673ffffffffffffffffffffffffffffffffffffffff1673ffffffffffffffffffffffffffffffffffffffff1681526020016005820160149054906101000a900460ff161515151581525050905060008160a001519050600082600001511180156106da5750600154826000015111155b6106e357600080fd5b81606001513410156106f457600080fd5b600082608001511161070557600080fd5b8160c001511561071457600080fd5b3373ffffffffffffffffffffffffffffffffffffffff168173ffffffffffffffffffffffffffffffffffffffff16141561074d57600080fd5b338260a0019073ffffffffffffffffffffffffffffffffffffffff16908173ffffffffffffffffffffffffffffffffffffffff168152505060018260c001901515908115158152505081600260008581526020019081526020016000206000820151816000015560208201518160010190805190602001906107d0929190610ef6565b5060408201518160020190805190602001906107ed929190610ef6565b50606082015181600301556080820151816004015560a08201518160050160006101000a81548173ffffffffffffffffffffffffffffffffffffffff021916908373ffffffffffffffffffffffffffffffffffffffff16021790555060c08201518160050160146101000a81548160ff0219169083151502179055509050508073ffffffffffffffffffffffffffffffffffffffff166108fc349081150290604051600060405180830381858888f193505050501580156108b2573d6000803e3d6000fd5b507f339e2332b4b793055de98501058a359146373bae91adae85e687153d67c74f2c60015483602001518460400151856080015186606001513360016040518088815260200180602001806020018781526020018681526020018573ffffffffffffffffffffffffffffffffffffffff1673ffffffffffffffffffffffffffffffffffffffff16815260200184151515158152602001838103835289818151815260200191508051906020019080838360005b83811015610980578082015181840152602081019050610965565b50505050905090810190601f1680156109ad5780820380516001836020036101000a031916815260200191505b50838103825288818151815260200191508051906020019080838360005b838110156109e65780820151818401526020810190506109cb565b50505050905090810190601f168015610a135780820380516001836020036101000a031916815260200191505b50995050505050505050505060405180910390a1505050565b6002602052806000526040600020600091509050806000015490806001018054600181600116156101000203166002900480601f016020809104026020016040519081016040528092919081815260200182805460018160011615610100020316600290048015610ade5780601f10610ab357610100808354040283529160200191610ade565b820191906000526020600020905b815481529060010190602001808311610ac157829003601f168201915b505050505090806002018054600181600116156101000203166002900480601f016020809104026020016040519081016040528092919081815260200182805460018160011615610100020316600290048015610b7c5780601f10610b5157610100808354040283529160200191610b7c565b820191906000526020600020905b815481529060010190602001808311610b5f57829003601f168201915b5050505050908060030154908060040154908060050160009054906101000a900473ffffffffffffffffffffffffffffffffffffffff16908060050160149054906101000a900460ff16905087565b60015481565b6000845111610bdf57600080fd5b6000835111610bed57600080fd5b60008211610bfa57600080fd5b60008111610c0757600080fd5b60018054016001819055506040518060e0016040528060015481526020018581526020018481526020018281526020018381526020013373ffffffffffffffffffffffffffffffffffffffff16815260200160001515815250600260006001548152602001908152602001600020600082015181600001556020820151816001019080519060200190610c9b929190610ef6565b506040820151816002019080519060200190610cb8929190610ef6565b50606082015181600301556080820151816004015560a08201518160050160006101000a81548173ffffffffffffffffffffffffffffffffffffffff021916908373ffffffffffffffffffffffffffffffffffffffff16021790555060c08201518160050160146101000a81548160ff0219169083151502179055509050507fd8d861a62323fea4e871e3a9c1ab53377b0acbca03acf9c0313da5523a825723600154858585853360006040518088815260200180602001806020018781526020018681526020018573ffffffffffffffffffffffffffffffffffffffff1673ffffffffffffffffffffffffffffffffffffffff16815260200184151515158152602001838103835289818151815260200191508051906020019080838360005b83811015610df4578082015181840152602081019050610dd9565b50505050905090810190601f168015610e215780820380516001836020036101000a031916815260200191505b50838103825288818151815260200191508051906020019080838360005b83811015610e5a578082015181840152602081019050610e3f565b50505050905090810190601f168015610e875780820380516001836020036101000a031916815260200191505b50995050505050505050505060405180910390a150505050565b6040518060e001604052806000815260200160608152602001606081526020016000815260200160008152602001600073ffffffffffffffffffffffffffffffffffffffff1681526020016000151581525090565b828054600181600116156101000203166002900490600052602060002090601f016020900481019282601f10610f3757805160ff1916838001178555610f65565b82800160010185558215610f65579182015b82811115610f64578251825591602001919060010190610f49565b5b509050610f729190610f76565b5090565b610f9891905b80821115610f94576000816000905550600101610f7c565b5090565b9056fea265627a7a72315820c80e2e294038cf288fe872ad10d5178db1ad5514c580f0a47349a7b16cca953a64736f6c63430005100032",
  "source": "pragma solidity ^0.5.0;\r\n\r\ncontract Marketplace {\r\n    string public Nombre;\r\n    uint public productCount = 0;\r\n    mapping(uint => Product) public productos;\r\n\r\n    constructor() public{\r\n        Nombre = \"Gpu Market\";\r\n    }\r\n\r\n    struct Product{\r\n        uint Id;\r\n        string Nombre;\r\n        string Modelo;\r\n        uint price;\r\n        uint Cantidad;\r\n        address payable Owner;\r\n        bool comprado;\r\n    }\r\n    event ProductCreado(\r\n        uint Id,\r\n        string Nombre,\r\n        string Modelo,\r\n        uint Cantidad,\r\n        uint price,\r\n        address payable Owner,\r\n        bool comprado\r\n    );\r\n    event ProductoComprado(\r\n        uint Id,\r\n        string Nombre,\r\n        string Modelo,\r\n        uint Cantidad,\r\n        uint price,\r\n        address payable Owner,\r\n        bool comprado\r\n    );\r\n\r\n    function crearProduct(string memory _Nombre, string memory _Modelo,  uint _Cantidad ,uint _price) public {\r\n        //Requiere un nombre , Modelo y precio valido\r\n        require(bytes(_Nombre).length >0);\r\n        require(bytes(_Modelo).length >0);\r\n        require(_Cantidad >0);\r\n        require(_price >0);\r\n        // Incrementa la cantidad de productos\r\n        productCount = productCount + 1;\r\n        //Crear el producto\r\n        productos[productCount] = Product(productCount,_Nombre,_Modelo, _price,_Cantidad, msg.sender,false);\r\n        //Trigger del evento\r\n        emit ProductCreado(productCount,_Nombre,_Modelo, _Cantidad, _price,msg.sender,false);\r\n    }\r\n    function comprarProduct(uint _id) public payable{\r\n        //Agarrar el producto\r\n        Product memory _product = productos[_id];\r\n\r\n        //Agarrar el owner/comprador\r\n        address payable _seller = _product.Owner;\r\n\r\n        //Producto tiene un id valido\r\n        require(_product.Id > 0 && _product.Id <= productCount);\r\n\r\n        //Hay cantidad necesaria de ether para la transaccion\r\n        require(msg.value >= _product.price);\r\n\r\n        //Que el producto tenga cantidades suficientes para la compra\r\n        require(_product.Cantidad > 0);\r\n        //no se haya comprado\r\n        require(!_product.comprado);\r\n        //que el comprador no sea un admin ni un vendedor AñADIR LO DE ADMIN\r\n        require(_seller != msg.sender );\r\n\r\n        //el quien lo compro es el dueño, no creo que funcione\r\n        _product.Owner=msg.sender;\r\n        //ya se ha comprado\r\n        _product.comprado =true;\r\n        //actualizar el producto\r\n        productos[_id]= _product;\r\n\r\n        //pagarle al comprador por el ether xd\r\n        address(_seller).transfer(msg.value);\r\n\r\n        //trigger el evento\r\n        emit ProductoComprado(productCount,_product.Nombre,_product.Modelo,_product.Cantidad,_product.price,msg.sender,true);\r\n\r\n    }\r\n}\r\n",
  "sourcePath": "C:/Users/dam_9/Desktop/Dapper/marketplace/src/contracts/Marketplace.sol",
  "compiler": {
    "name": "solc",
    "version": "0.5.16+commit.9c3226ce.Emscripten.clang"
  },
  "schemaVersion": "3.4.1",
  "updatedAt": "2021-05-31T21:47:46.682Z",
  "networkType": "ethereum",
  "devdoc": {
    "methods": {}
  },
  "userdoc": {
    "methods": {}
  }
}